{
  "contractName": "DisasterTraining",
  "abi": [
    {
      "anonymous": false,
      "inputs": [
        {
          "indexed": false,
          "internalType": "address",
          "name": "admin",
          "type": "address"
        }
      ],
      "name": "AdminRegistered",
      "type": "event"
    },
    {
      "anonymous": false,
      "inputs": [
        {
          "indexed": false,
          "internalType": "address",
          "name": "participant",
          "type": "address"
        },
        {
          "indexed": false,
          "internalType": "string",
          "name": "field",
          "type": "string"
        }
      ],
      "name": "DataUpdated",
      "type": "event"
    },
    {
      "anonymous": false,
      "inputs": [
        {
          "indexed": false,
          "internalType": "address",
          "name": "participant",
          "type": "address"
        },
        {
          "indexed": false,
          "internalType": "uint256",
          "name": "id",
          "type": "uint256"
        }
      ],
      "name": "ParticipantRegistered",
      "type": "event"
    },
    {
      "anonymous": false,
      "inputs": [
        {
          "indexed": false,
          "internalType": "address",
          "name": "trainer",
          "type": "address"
        }
      ],
      "name": "TrainerRegistered",
      "type": "event"
    },
    {
      "anonymous": false,
      "inputs": [
        {
          "indexed": false,
          "internalType": "address",
          "name": "participant",
          "type": "address"
        },
        {
          "indexed": false,
          "internalType": "address",
          "name": "trainer",
          "type": "address"
        },
        {
          "indexed": false,
          "internalType": "uint8",
          "name": "slot",
          "type": "uint8"
        }
      ],
      "name": "TrainingBooked",
      "type": "event"
    },
    {
      "inputs": [],
      "name": "BOOKING_FEE",
      "outputs": [
        {
          "internalType": "uint256",
          "name": "",
          "type": "uint256"
        }
      ],
      "stateMutability": "view",
      "type": "function",
      "constant": true
    },
    {
      "inputs": [
        {
          "internalType": "uint256",
          "name": "",
          "type": "uint256"
        }
      ],
      "name": "admins",
      "outputs": [
        {
          "internalType": "address",
          "name": "",
          "type": "address"
        }
      ],
      "stateMutability": "view",
      "type": "function",
      "constant": true
    },
    {
      "inputs": [
        {
          "internalType": "address",
          "name": "",
          "type": "address"
        }
      ],
      "name": "participants",
      "outputs": [
        {
          "internalType": "uint256",
          "name": "id",
          "type": "uint256"
        },
        {
          "internalType": "string",
          "name": "name",
          "type": "string"
        },
        {
          "internalType": "uint256",
          "name": "age",
          "type": "uint256"
        },
        {
          "internalType": "string",
          "name": "gender",
          "type": "string"
        },
        {
          "internalType": "string",
          "name": "district",
          "type": "string"
        },
        {
          "internalType": "enum DisasterTraining.TrainingInterest",
          "name": "training_interest",
          "type": "uint8"
        },
        {
          "internalType": "bool",
          "name": "has_completed_training",
          "type": "bool"
        },
        {
          "internalType": "address",
          "name": "wallet",
          "type": "address"
        }
      ],
      "stateMutability": "view",
      "type": "function",
      "constant": true
    },
    {
      "inputs": [
        {
          "internalType": "uint256",
          "name": "",
          "type": "uint256"
        }
      ],
      "name": "trainers",
      "outputs": [
        {
          "internalType": "address",
          "name": "",
          "type": "address"
        }
      ],
      "stateMutability": "view",
      "type": "function",
      "constant": true
    },
    {
      "inputs": [
        {
          "internalType": "address",
          "name": "",
          "type": "address"
        }
      ],
      "name": "userRoles",
      "outputs": [
        {
          "internalType": "enum DisasterTraining.UserRole",
          "name": "",
          "type": "uint8"
        }
      ],
      "stateMutability": "view",
      "type": "function",
      "constant": true
    },
    {
      "inputs": [],
      "name": "registerAsAdmin",
      "outputs": [],
      "stateMutability": "nonpayable",
      "type": "function"
    },
    {
      "inputs": [],
      "name": "registerAsTrainer",
      "outputs": [],
      "stateMutability": "nonpayable",
      "type": "function"
    },
    {
      "inputs": [
        {
          "internalType": "string",
          "name": "_name",
          "type": "string"
        },
        {
          "internalType": "uint256",
          "name": "_age",
          "type": "uint256"
        },
        {
          "internalType": "string",
          "name": "_gender",
          "type": "string"
        },
        {
          "internalType": "string",
          "name": "_district",
          "type": "string"
        },
        {
          "internalType": "uint8",
          "name": "_interest",
          "type": "uint8"
        }
      ],
      "name": "registerAsParticipant",
      "outputs": [],
      "stateMutability": "nonpayable",
      "type": "function"
    },
    {
      "inputs": [],
      "name": "getTrainersLength",
      "outputs": [
        {
          "internalType": "uint256",
          "name": "",
          "type": "uint256"
        }
      ],
      "stateMutability": "view",
      "type": "function",
      "constant": true
    },
    {
      "inputs": [
        {
          "internalType": "address",
          "name": "participantAddr",
          "type": "address"
        },
        {
          "internalType": "uint8",
          "name": "newInterest",
          "type": "uint8"
        },
        {
          "internalType": "bool",
          "name": "setCompleted",
          "type": "bool"
        }
      ],
      "name": "updateParticipant",
      "outputs": [],
      "stateMutability": "nonpayable",
      "type": "function"
    },
    {
      "inputs": [
        {
          "internalType": "address",
          "name": "trainer",
          "type": "address"
        },
        {
          "internalType": "uint8",
          "name": "slotIndex",
          "type": "uint8"
        }
      ],
      "name": "bookTrainingSlot",
      "outputs": [],
      "stateMutability": "payable",
      "type": "function",
      "payable": true
    },
    {
      "inputs": [
        {
          "internalType": "address",
          "name": "trainer",
          "type": "address"
        }
      ],
      "name": "viewTrainerSchedule",
      "outputs": [
        {
          "internalType": "address[6]",
          "name": "",
          "type": "address[6]"
        }
      ],
      "stateMutability": "view",
      "type": "function",
      "constant": true
    }
  ],
  "bytecode": "0x6080604052600160005534801561001557600080fd5b506127a0806100256000396000f3fe6080604052600436106100a75760003560e01c8063723330911161006457806372333091146101d357806374d5e100146101fe5780638ccd90321461023b578063d3b9ad6b14610278578063dc0dc24e1461028f578063e00ef936146102ab576100a7565b80630745c949146100ac57806309e69ede146100d557806314bfd6d01461011957806320adc4d914610156578063498d55b8146101935780635a14a814146101aa575b600080fd5b3480156100b857600080fd5b506100d360048036038101906100ce9190611761565b6102d6565b005b3480156100e157600080fd5b506100fc60048036038101906100f7919061189b565b61071b565b604051610110989796959493929190611a08565b60405180910390f35b34801561012557600080fd5b50610140600480360381019061013b9190611a9b565b610935565b60405161014d9190611ac8565b60405180910390f35b34801561016257600080fd5b5061017d60048036038101906101789190611a9b565b610974565b60405161018a9190611ac8565b60405180910390f35b34801561019f57600080fd5b506101a86109b3565b005b3480156101b657600080fd5b506101d160048036038101906101cc9190611b0f565b610b69565b005b3480156101df57600080fd5b506101e8610e33565b6040516101f59190611b62565b60405180910390f35b34801561020a57600080fd5b506102256004803603810190610220919061189b565b610e40565b6040516102329190611bc5565b60405180910390f35b34801561024757600080fd5b50610262600480360381019061025d919061189b565b610e60565b60405161026f9190611c8b565b60405180910390f35b34801561028457600080fd5b5061028d611025565b005b6102a960048036038101906102a49190611ca6565b611244565b005b3480156102b757600080fd5b506102c0611656565b6040516102cd9190611b62565b60405180910390f35b60008060008154809291906102ea90611d15565b9190505590506000600381111561030457610303611967565b5b600160003373ffffffffffffffffffffffffffffffffffffffff1673ffffffffffffffffffffffffffffffffffffffff16815260200190815260200160002060009054906101000a900460ff16600381111561036357610362611967565b5b146103a3576040517f08c379a000000000000000000000000000000000000000000000000000000000815260040161039a90611da9565b60405180910390fd5b60018260ff16101580156103bb575060038260ff1611155b6103fa576040517f08c379a00000000000000000000000000000000000000000000000000000000081526004016103f190611e15565b60405180910390fd5b6040518061010001604052808281526020018a8a8080601f016020809104026020016040519081016040528093929190818152602001838380828437600081840152601f19601f82011690508083019250505050505050815260200188815260200187878080601f016020809104026020016040519081016040528093929190818152602001838380828437600081840152601f19601f82011690508083019250505050505050815260200185858080601f016020809104026020016040519081016040528093929190818152602001838380828437600081840152601f19601f8201169050808301925050505050505081526020018360ff16600381111561050657610505611967565b5b600381111561051857610517611967565b5b81526020016000151581526020013373ffffffffffffffffffffffffffffffffffffffff16815250600460003373ffffffffffffffffffffffffffffffffffffffff1673ffffffffffffffffffffffffffffffffffffffff16815260200190815260200160002060008201518160000155602082015181600101908161059e9190612070565b506040820151816002015560608201518160030190816105be9190612070565b5060808201518160040190816105d49190612070565b5060a08201518160050160006101000a81548160ff02191690836003811115610600576105ff611967565b5b021790555060c08201518160050160016101000a81548160ff02191690831515021790555060e08201518160050160026101000a81548173ffffffffffffffffffffffffffffffffffffffff021916908373ffffffffffffffffffffffffffffffffffffffff1602179055509050506003600160003373ffffffffffffffffffffffffffffffffffffffff1673ffffffffffffffffffffffffffffffffffffffff16815260200190815260200160002060006101000a81548160ff021916908360038111156106d2576106d1611967565b5b02179055507fa48418fa780c651bef841ca082131ed20bc20c620dd0459bba9ab78550f5d6233382604051610708929190612142565b60405180910390a1505050505050505050565b600460205280600052604060002060009150905080600001549080600101805461074490611e93565b80601f016020809104026020016040519081016040528092919081815260200182805461077090611e93565b80156107bd5780601f10610792576101008083540402835291602001916107bd565b820191906000526020600020905b8154815290600101906020018083116107a057829003601f168201915b5050505050908060020154908060030180546107d890611e93565b80601f016020809104026020016040519081016040528092919081815260200182805461080490611e93565b80156108515780601f1061082657610100808354040283529160200191610851565b820191906000526020600020905b81548152906001019060200180831161083457829003601f168201915b50505050509080600401805461086690611e93565b80601f016020809104026020016040519081016040528092919081815260200182805461089290611e93565b80156108df5780601f106108b4576101008083540402835291602001916108df565b820191906000526020600020905b8154815290600101906020018083116108c257829003601f168201915b5050505050908060050160009054906101000a900460ff16908060050160019054906101000a900460ff16908060050160029054906101000a900473ffffffffffffffffffffffffffffffffffffffff16905088565b6002818154811061094557600080fd5b906000526020600020016000915054906101000a900473ffffffffffffffffffffffffffffffffffffffff1681565b6003818154811061098457600080fd5b906000526020600020016000915054906101000a900473ffffffffffffffffffffffffffffffffffffffff1681565b600060038111156109c7576109c6611967565b5b600160003373ffffffffffffffffffffffffffffffffffffffff1673ffffffffffffffffffffffffffffffffffffffff16815260200190815260200160002060009054906101000a900460ff166003811115610a2657610a25611967565b5b14610a66576040517f08c379a0000000000000000000000000000000000000000000000000000000008152600401610a5d90611da9565b60405180910390fd5b60018060003373ffffffffffffffffffffffffffffffffffffffff1673ffffffffffffffffffffffffffffffffffffffff16815260200190815260200160002060006101000a81548160ff02191690836003811115610ac857610ac7611967565b5b02179055506002339080600181540180825580915050600190039060005260206000200160009091909190916101000a81548173ffffffffffffffffffffffffffffffffffffffff021916908373ffffffffffffffffffffffffffffffffffffffff1602179055507fac0f15283d37631c15b481bc07dc402bcfc030956bcd94b5585f71d92e84c3da33604051610b5f9190611ac8565b60405180910390a1565b60016003811115610b7d57610b7c611967565b5b600160003373ffffffffffffffffffffffffffffffffffffffff1673ffffffffffffffffffffffffffffffffffffffff16815260200190815260200160002060009054906101000a900460ff166003811115610bdc57610bdb611967565b5b14610c1c576040517f08c379a0000000000000000000000000000000000000000000000000000000008152600401610c13906121b7565b60405180910390fd5b6000600460008573ffffffffffffffffffffffffffffffffffffffff1673ffffffffffffffffffffffffffffffffffffffff168152602001908152602001600020905060008360ff1614610d3a5760018360ff1610158015610c82575060038360ff1611155b610cc1576040517f08c379a0000000000000000000000000000000000000000000000000000000008152600401610cb890612223565b60405180910390fd5b8260ff166003811115610cd757610cd6611967565b5b8160050160006101000a81548160ff02191690836003811115610cfd57610cfc611967565b5b02179055507f077380cc4f1ff57ad464ec617331c7304c78fc6bfdd0e3b5efa221a3bb9f6e2084604051610d31919061228f565b60405180910390a15b8115610deb578060050160019054906101000a900460ff1615610d92576040517f08c379a0000000000000000000000000000000000000000000000000000000008152600401610d8990612309565b60405180910390fd5b60018160050160016101000a81548160ff0219169083151502179055507f077380cc4f1ff57ad464ec617331c7304c78fc6bfdd0e3b5efa221a3bb9f6e2084604051610dde9190612375565b60405180910390a1610e2d565b8115610e2c576040517f08c379a0000000000000000000000000000000000000000000000000000000008152600401610e23906123ef565b60405180910390fd5b5b50505050565b6000600380549050905090565b60016020528060005260406000206000915054906101000a900460ff1681565b610e68611661565b60026003811115610e7c57610e7b611967565b5b600160008473ffffffffffffffffffffffffffffffffffffffff1673ffffffffffffffffffffffffffffffffffffffff16815260200190815260200160002060009054906101000a900460ff166003811115610edb57610eda611967565b5b14610f1b576040517f08c379a0000000000000000000000000000000000000000000000000000000008152600401610f129061245b565b60405180910390fd5b610f23611661565b6000600190505b60068160ff161161101b57600560008573ffffffffffffffffffffffffffffffffffffffff1673ffffffffffffffffffffffffffffffffffffffff16815260200190815260200160002060000160008260ff1660ff16815260200190815260200160002060009054906101000a900473ffffffffffffffffffffffffffffffffffffffff1682600183610fbd919061247b565b60ff1660068110610fd157610fd06124b0565b5b602002019073ffffffffffffffffffffffffffffffffffffffff16908173ffffffffffffffffffffffffffffffffffffffff16815250508080611013906124df565b915050610f2a565b5080915050919050565b6000600381111561103957611038611967565b5b600160003373ffffffffffffffffffffffffffffffffffffffff1673ffffffffffffffffffffffffffffffffffffffff16815260200190815260200160002060009054906101000a900460ff16600381111561109857611097611967565b5b146110d8576040517f08c379a00000000000000000000000000000000000000000000000000000000081526004016110cf90611da9565b60405180910390fd5b6002600160003373ffffffffffffffffffffffffffffffffffffffff1673ffffffffffffffffffffffffffffffffffffffff16815260200190815260200160002060006101000a81548160ff0219169083600381111561113b5761113a611967565b5b02179055506003339080600181540180825580915050600190039060005260206000200160009091909190916101000a81548173ffffffffffffffffffffffffffffffffffffffff021916908373ffffffffffffffffffffffffffffffffffffffff1602179055506002600160003373ffffffffffffffffffffffffffffffffffffffff1673ffffffffffffffffffffffffffffffffffffffff16815260200190815260200160002060006101000a81548160ff0219169083600381111561120657611205611967565b5b02179055507f672ed10db1686d24f0498d7222ee16112f36c3df1825007916800893ca842a123360405161123a9190611ac8565b60405180910390a1565b60038081111561125757611256611967565b5b600160003373ffffffffffffffffffffffffffffffffffffffff1673ffffffffffffffffffffffffffffffffffffffff16815260200190815260200160002060009054906101000a900460ff1660038111156112b6576112b5611967565b5b146112f6576040517f08c379a00000000000000000000000000000000000000000000000000000000081526004016112ed90612554565b60405180910390fd5b6002600381111561130a57611309611967565b5b600160008473ffffffffffffffffffffffffffffffffffffffff1673ffffffffffffffffffffffffffffffffffffffff16815260200190815260200160002060009054906101000a900460ff16600381111561136957611368611967565b5b146113a9576040517f08c379a00000000000000000000000000000000000000000000000000000000081526004016113a0906125c0565b60405180910390fd5b60018160ff16101580156113c1575060068160ff1611155b611400576040517f08c379a00000000000000000000000000000000000000000000000000000000081526004016113f79061262c565b60405180910390fd5b6658d15e176280003414611449576040517f08c379a000000000000000000000000000000000000000000000000000000000815260040161144090612698565b60405180910390fd5b6000600560008473ffffffffffffffffffffffffffffffffffffffff1673ffffffffffffffffffffffffffffffffffffffff1681526020019081526020016000209050600073ffffffffffffffffffffffffffffffffffffffff168160000160008460ff1660ff16815260200190815260200160002060009054906101000a900473ffffffffffffffffffffffffffffffffffffffff1673ffffffffffffffffffffffffffffffffffffffff1614611536576040517f08c379a000000000000000000000000000000000000000000000000000000000815260040161152d90612704565b60405180910390fd5b338160000160008460ff1660ff16815260200190815260200160002060006101000a81548173ffffffffffffffffffffffffffffffffffffffff021916908373ffffffffffffffffffffffffffffffffffffffff16021790555060026000815481106115a5576115a46124b0565b5b9060005260206000200160009054906101000a900473ffffffffffffffffffffffffffffffffffffffff1673ffffffffffffffffffffffffffffffffffffffff166108fc349081150290604051600060405180830381858888f19350505050158015611615573d6000803e3d6000fd5b507fe487069c0cb20caa4bb3232e0889f0368a1e4f6ef2640e563c06c1236ced95ac33848460405161164993929190612733565b60405180910390a1505050565b6658d15e1762800081565b6040518060c00160405280600690602082028036833780820191505090505090565b600080fd5b600080fd5b600080fd5b600080fd5b600080fd5b60008083601f8401126116b2576116b161168d565b5b8235905067ffffffffffffffff8111156116cf576116ce611692565b5b6020830191508360018202830111156116eb576116ea611697565b5b9250929050565b6000819050919050565b611705816116f2565b811461171057600080fd5b50565b600081359050611722816116fc565b92915050565b600060ff82169050919050565b61173e81611728565b811461174957600080fd5b50565b60008135905061175b81611735565b92915050565b60008060008060008060008060a0898b03121561178157611780611683565b5b600089013567ffffffffffffffff81111561179f5761179e611688565b5b6117ab8b828c0161169c565b985098505060206117be8b828c01611713565b965050604089013567ffffffffffffffff8111156117df576117de611688565b5b6117eb8b828c0161169c565b9550955050606089013567ffffffffffffffff81111561180e5761180d611688565b5b61181a8b828c0161169c565b9350935050608061182d8b828c0161174c565b9150509295985092959890939650565b600073ffffffffffffffffffffffffffffffffffffffff82169050919050565b60006118688261183d565b9050919050565b6118788161185d565b811461188357600080fd5b50565b6000813590506118958161186f565b92915050565b6000602082840312156118b1576118b0611683565b5b60006118bf84828501611886565b91505092915050565b6118d1816116f2565b82525050565b600081519050919050565b600082825260208201905092915050565b60005b838110156119115780820151818401526020810190506118f6565b60008484015250505050565b6000601f19601f8301169050919050565b6000611939826118d7565b61194381856118e2565b93506119538185602086016118f3565b61195c8161191d565b840191505092915050565b7f4e487b7100000000000000000000000000000000000000000000000000000000600052602160045260246000fd5b600481106119a7576119a6611967565b5b50565b60008190506119b882611996565b919050565b60006119c8826119aa565b9050919050565b6119d8816119bd565b82525050565b60008115159050919050565b6119f3816119de565b82525050565b611a028161185d565b82525050565b600061010082019050611a1e600083018b6118c8565b8181036020830152611a30818a61192e565b9050611a3f60408301896118c8565b8181036060830152611a51818861192e565b90508181036080830152611a65818761192e565b9050611a7460a08301866119cf565b611a8160c08301856119ea565b611a8e60e08301846119f9565b9998505050505050505050565b600060208284031215611ab157611ab0611683565b5b6000611abf84828501611713565b91505092915050565b6000602082019050611add60008301846119f9565b92915050565b611aec816119de565b8114611af757600080fd5b50565b600081359050611b0981611ae3565b92915050565b600080600060608486031215611b2857611b27611683565b5b6000611b3686828701611886565b9350506020611b478682870161174c565b9250506040611b5886828701611afa565b9150509250925092565b6000602082019050611b7760008301846118c8565b92915050565b60048110611b8e57611b8d611967565b5b50565b6000819050611b9f82611b7d565b919050565b6000611baf82611b91565b9050919050565b611bbf81611ba4565b82525050565b6000602082019050611bda6000830184611bb6565b92915050565b600060069050919050565b600081905092915050565b6000819050919050565b611c098161185d565b82525050565b6000611c1b8383611c00565b60208301905092915050565b6000602082019050919050565b611c3d81611be0565b611c478184611beb565b9250611c5282611bf6565b8060005b83811015611c83578151611c6a8782611c0f565b9650611c7583611c27565b925050600181019050611c56565b505050505050565b600060c082019050611ca06000830184611c34565b92915050565b60008060408385031215611cbd57611cbc611683565b5b6000611ccb85828601611886565b9250506020611cdc8582860161174c565b9150509250929050565b7f4e487b7100000000000000000000000000000000000000000000000000000000600052601160045260246000fd5b6000611d20826116f2565b91507fffffffffffffffffffffffffffffffffffffffffffffffffffffffffffffffff8203611d5257611d51611ce6565b5b600182019050919050565b7f416c726561647920726567697374657265640000000000000000000000000000600082015250565b6000611d936012836118e2565b9150611d9e82611d5d565b602082019050919050565b60006020820190508181036000830152611dc281611d86565b9050919050565b7f496e76616c696420696e7465726573742073656c656374656400000000000000600082015250565b6000611dff6019836118e2565b9150611e0a82611dc9565b602082019050919050565b60006020820190508181036000830152611e2e81611df2565b9050919050565b7f4e487b7100000000000000000000000000000000000000000000000000000000600052604160045260246000fd5b7f4e487b7100000000000000000000000000000000000000000000000000000000600052602260045260246000fd5b60006002820490506001821680611eab57607f821691505b602082108103611ebe57611ebd611e64565b5b50919050565b60008190508160005260206000209050919050565b60006020601f8301049050919050565b600082821b905092915050565b600060088302611f267fffffffffffffffffffffffffffffffffffffffffffffffffffffffffffffffff82611ee9565b611f308683611ee9565b95508019841693508086168417925050509392505050565b6000819050919050565b6000611f6d611f68611f63846116f2565b611f48565b6116f2565b9050919050565b6000819050919050565b611f8783611f52565b611f9b611f9382611f74565b848454611ef6565b825550505050565b600090565b611fb0611fa3565b611fbb818484611f7e565b505050565b5b81811015611fdf57611fd4600082611fa8565b600181019050611fc1565b5050565b601f82111561202457611ff581611ec4565b611ffe84611ed9565b8101602085101561200d578190505b61202161201985611ed9565b830182611fc0565b50505b505050565b600082821c905092915050565b600061204760001984600802612029565b1980831691505092915050565b60006120608383612036565b9150826002028217905092915050565b612079826118d7565b67ffffffffffffffff81111561209257612091611e35565b5b61209c8254611e93565b6120a7828285611fe3565b600060209050601f8311600181146120da57600084156120c8578287015190505b6120d28582612054565b86555061213a565b601f1984166120e886611ec4565b60005b82811015612110578489015182556001820191506020850194506020810190506120eb565b8683101561212d5784890151612129601f891682612036565b8355505b6001600288020188555050505b505050505050565b600060408201905061215760008301856119f9565b61216460208301846118c8565b9392505050565b7f4f6e6c792041646d696e20616c6c6f7765640000000000000000000000000000600082015250565b60006121a16012836118e2565b91506121ac8261216b565b602082019050919050565b600060208201905081810360008301526121d081612194565b9050919050565b7f496e76616c696420747261696e696e6720696e74657265737400000000000000600082015250565b600061220d6019836118e2565b9150612218826121d7565b602082019050919050565b6000602082019050818103600083015261223c81612200565b9050919050565b7f696e746572657374000000000000000000000000000000000000000000000000600082015250565b60006122796008836118e2565b915061228482612243565b602082019050919050565b60006040820190506122a460008301846119f9565b81810360208301526122b58161226c565b905092915050565b7f416c726561647920636f6d706c65746564000000000000000000000000000000600082015250565b60006122f36011836118e2565b91506122fe826122bd565b602082019050919050565b60006020820190508181036000830152612322816122e6565b9050919050565b7f686173436f6d706c65746564547261696e696e67000000000000000000000000600082015250565b600061235f6014836118e2565b915061236a82612329565b602082019050919050565b600060408201905061238a60008301846119f9565b818103602083015261239b81612352565b905092915050565b7f436f6d706c6574696f6e2063616e6e6f74206265207265766572746564000000600082015250565b60006123d9601d836118e2565b91506123e4826123a3565b602082019050919050565b60006020820190508181036000830152612408816123cc565b9050919050565b7f4e6f74206120747261696e657200000000000000000000000000000000000000600082015250565b6000612445600d836118e2565b91506124508261240f565b602082019050919050565b6000602082019050818103600083015261247481612438565b9050919050565b600061248682611728565b915061249183611728565b9250828203905060ff8111156124aa576124a9611ce6565b5b92915050565b7f4e487b7100000000000000000000000000000000000000000000000000000000600052603260045260246000fd5b60006124ea82611728565b915060ff82036124fd576124fc611ce6565b5b600182019050919050565b7f4f6e6c79205061727469636970616e7420616c6c6f7765640000000000000000600082015250565b600061253e6018836118e2565b915061254982612508565b602082019050919050565b6000602082019050818103600083015261256d81612531565b9050919050565b7f4e6f7420612076616c696420747261696e657200000000000000000000000000600082015250565b60006125aa6013836118e2565b91506125b582612574565b602082019050919050565b600060208201905081810360008301526125d98161259d565b9050919050565b7f496e76616c696420736c6f740000000000000000000000000000000000000000600082015250565b6000612616600c836118e2565b9150612621826125e0565b602082019050919050565b6000602082019050818103600083015261264581612609565b9050919050565b7f496e636f72726563742066656500000000000000000000000000000000000000600082015250565b6000612682600d836118e2565b915061268d8261264c565b602082019050919050565b600060208201905081810360008301526126b181612675565b9050919050565b7f547261696e657220616c726561647920626f6f6b656400000000000000000000600082015250565b60006126ee6016836118e2565b91506126f9826126b8565b602082019050919050565b6000602082019050818103600083015261271d816126e1565b9050919050565b61272d81611728565b82525050565b600060608201905061274860008301866119f9565b61275560208301856119f9565b6127626040830184612724565b94935050505056fea2646970667358221220655dfc81d451423c072d56a2a2045ae05def635ac508bf217f19711a8e82ce6264736f6c63430008130033",
  "immutableReferences": {},
  "source": "// SPDX-License-Identifier: GPL-3.0\n\n\npragma solidity >=0.8.2 <0.9.0;\n\n\ncontract DisasterTraining {\n\n\n    enum UserRole { None, Admin, Trainer, Participant }\n    enum TrainingInterest { None, first_aid, shelter_rebuild, food_safety }\n\n\n    uint public constant BOOKING_FEE = 0.025 ether;\n    uint private nextParticipantId = 1;\n\n\n    struct Participant {\n        uint id;\n        string name;\n        uint age;\n        string gender;\n        string district;\n        TrainingInterest training_interest;\n        bool has_completed_training;\n        address wallet;\n    }\n\n\n    struct TrainerSchedule {\n        mapping(uint8 => address) slotToParticipant; // slot index to participant address\n    }\n\n\n    mapping(address => UserRole) public userRoles;\n    address[] public admins;\n    address[] public trainers;\n    mapping(address => Participant) public participants;\n    mapping(address => TrainerSchedule) private trainerSchedules;\n\n\n    event ParticipantRegistered(address participant, uint id);\n    event TrainerRegistered(address trainer);\n    event AdminRegistered(address admin);\n    event DataUpdated(address participant, string field);\n    event TrainingBooked(address participant, address trainer, uint8 slot);\n\n\n    modifier onlyAdmin() {\n        require(userRoles[msg.sender] == UserRole.Admin, \"Only Admin allowed\");\n        _;\n    }\n\n\n    modifier onlyParticipant() {\n        require(userRoles[msg.sender] == UserRole.Participant, \"Only Participant allowed\");\n        _;\n    }\n\n\n    // Registration functions\n    function registerAsAdmin() external {\n        require(userRoles[msg.sender] == UserRole.None, \"Already registered\");\n        userRoles[msg.sender] = UserRole.Admin;\n        admins.push(msg.sender);\n        emit AdminRegistered(msg.sender);\n    }\n\n\n    function registerAsTrainer() external {\n        require(userRoles[msg.sender] == UserRole.None, \"Already registered\");\n        userRoles[msg.sender] = UserRole.Trainer;\n        \n        trainers.push(msg.sender);\n        userRoles[msg.sender] = UserRole.Trainer;\n        emit TrainerRegistered(msg.sender);\n    }\n\n\n    function registerAsParticipant(\n        string calldata _name,\n        uint _age,\n        string calldata _gender,\n        string calldata _district,\n        uint8 _interest\n    ) external {\n        uint id = nextParticipantId++;\n        require(userRoles[msg.sender] == UserRole.None, \"Already registered\");\n        require(_interest >= 1 && _interest <= 3, \"Invalid interest selected\");\n       \n        participants[msg.sender] = Participant({\n            id: id,\n            name: _name,\n            age: _age,\n            gender: _gender,\n            district: _district,\n            training_interest: TrainingInterest(_interest),\n            has_completed_training: false,\n            wallet: msg.sender\n        });\n        userRoles[msg.sender] = UserRole.Participant;\n        emit ParticipantRegistered(msg.sender, id);\n    }\n\n    function getTrainersLength() public view returns (uint) {\n    return trainers.length;\n    }\n\n\n    // Admin can update certain fields\n    function updateParticipant(\n        address participantAddr,\n        uint8 newInterest,\n        bool setCompleted\n    ) external onlyAdmin {\n        Participant storage p = participants[participantAddr];\n\n\n        if (newInterest != 0) {\n            require(newInterest >= 1 && newInterest <= 3, \"Invalid training interest\");\n            p.training_interest = TrainingInterest(newInterest);\n            emit DataUpdated(participantAddr, \"interest\");\n        }\n        if (setCompleted) {\n            require(!p.has_completed_training, \"Already completed\");\n            p.has_completed_training = true;\n            emit DataUpdated(participantAddr, \"hasCompletedTraining\");\n        } else {\n            require(!setCompleted, \"Completion cannot be reverted\");\n        }\n    }\n\n\n    // Book a training slot with a trainer\n    // slots: 1: 9:009:30, 2: 9:3110:00, 3: 10:0110:30 4: 10:31-11.00 5: 11.01-11.30 6: 11.31-12.00\n    function bookTrainingSlot(address trainer, uint8 slotIndex) external payable onlyParticipant {\n        require(userRoles[trainer] == UserRole.Trainer, \"Not a valid trainer\");\n        require(slotIndex >= 1 && slotIndex <= 6, \"Invalid slot\");\n        require(msg.value == BOOKING_FEE, \"Incorrect fee\");\n        TrainerSchedule storage ts = trainerSchedules[trainer];\n        require(ts.slotToParticipant[slotIndex] == address(0), \"Trainer already booked\");\n\n\n        ts.slotToParticipant[slotIndex] = msg.sender;\n        // Send the fee to admin\n        payable(admins[0]).transfer(msg.value);\n\n\n        emit TrainingBooked(msg.sender, trainer, slotIndex);\n    }\n\n\n    // View a trainer's schedule\n    function viewTrainerSchedule(address trainer) public view returns (address[6] memory) {\n        require(userRoles[trainer] == UserRole.Trainer, \"Not a trainer\");\n        address[6] memory slots;\n        for (uint8 i = 1; i <= 6; i++) {\n            slots[i-1] = trainerSchedules[trainer].slotToParticipant[i];\n        }\n        return slots;\n    }\n}\n",
  "sourcePath": "/home/rifraff/DisasterDapp/contracts/DisasterTraining.sol",
  "compiler": {
    "name": "solc",
    "version": "0.8.19+commit.7dd6d404.Emscripten.clang"
  },
  "schemaVersion": "3.4.16",
  "updatedAt": "2025-08-22T14:01:28.441Z",
  "networkType": "ethereum",
  "devdoc": {
    "kind": "dev",
    "methods": {},
    "version": 1
  },
  "userdoc": {
    "kind": "user",
    "methods": {},
    "version": 1
  }
}