{
  "contractName": "DisasterTraining",
  "abi": [
    {
      "anonymous": false,
      "inputs": [
        {
          "indexed": false,
          "internalType": "address",
          "name": "admin",
          "type": "address"
        }
      ],
      "name": "AdminRegistered",
      "type": "event"
    },
    {
      "anonymous": false,
      "inputs": [
        {
          "indexed": false,
          "internalType": "address",
          "name": "participant",
          "type": "address"
        },
        {
          "indexed": false,
          "internalType": "string",
          "name": "ipfsCID",
          "type": "string"
        }
      ],
      "name": "CertificateUploaded",
      "type": "event"
    },
    {
      "anonymous": false,
      "inputs": [
        {
          "indexed": false,
          "internalType": "address",
          "name": "participant",
          "type": "address"
        },
        {
          "indexed": false,
          "internalType": "string",
          "name": "field",
          "type": "string"
        }
      ],
      "name": "DataUpdated",
      "type": "event"
    },
    {
      "anonymous": false,
      "inputs": [
        {
          "indexed": false,
          "internalType": "address",
          "name": "participant",
          "type": "address"
        },
        {
          "indexed": false,
          "internalType": "uint256",
          "name": "id",
          "type": "uint256"
        }
      ],
      "name": "ParticipantRegistered",
      "type": "event"
    },
    {
      "anonymous": false,
      "inputs": [
        {
          "indexed": false,
          "internalType": "address",
          "name": "trainer",
          "type": "address"
        }
      ],
      "name": "TrainerRegistered",
      "type": "event"
    },
    {
      "anonymous": false,
      "inputs": [
        {
          "indexed": false,
          "internalType": "address",
          "name": "participant",
          "type": "address"
        },
        {
          "indexed": false,
          "internalType": "address",
          "name": "trainer",
          "type": "address"
        },
        {
          "indexed": false,
          "internalType": "uint8",
          "name": "slot",
          "type": "uint8"
        }
      ],
      "name": "TrainingBooked",
      "type": "event"
    },
    {
      "inputs": [],
      "name": "BOOKING_FEE",
      "outputs": [
        {
          "internalType": "uint256",
          "name": "",
          "type": "uint256"
        }
      ],
      "stateMutability": "view",
      "type": "function",
      "constant": true
    },
    {
      "inputs": [
        {
          "internalType": "uint256",
          "name": "",
          "type": "uint256"
        }
      ],
      "name": "admins",
      "outputs": [
        {
          "internalType": "address",
          "name": "",
          "type": "address"
        }
      ],
      "stateMutability": "view",
      "type": "function",
      "constant": true
    },
    {
      "inputs": [
        {
          "internalType": "string",
          "name": "",
          "type": "string"
        }
      ],
      "name": "districtParticipantCount",
      "outputs": [
        {
          "internalType": "uint256",
          "name": "",
          "type": "uint256"
        }
      ],
      "stateMutability": "view",
      "type": "function",
      "constant": true
    },
    {
      "inputs": [
        {
          "internalType": "uint256",
          "name": "",
          "type": "uint256"
        }
      ],
      "name": "participantAddresses",
      "outputs": [
        {
          "internalType": "address",
          "name": "",
          "type": "address"
        }
      ],
      "stateMutability": "view",
      "type": "function",
      "constant": true
    },
    {
      "inputs": [
        {
          "internalType": "address",
          "name": "",
          "type": "address"
        }
      ],
      "name": "participants",
      "outputs": [
        {
          "internalType": "uint256",
          "name": "id",
          "type": "uint256"
        },
        {
          "internalType": "string",
          "name": "name",
          "type": "string"
        },
        {
          "internalType": "uint256",
          "name": "age",
          "type": "uint256"
        },
        {
          "internalType": "string",
          "name": "gender",
          "type": "string"
        },
        {
          "internalType": "string",
          "name": "district",
          "type": "string"
        },
        {
          "internalType": "enum DisasterTraining.TrainingInterest",
          "name": "training_interest",
          "type": "uint8"
        },
        {
          "internalType": "bool",
          "name": "has_completed_training",
          "type": "bool"
        },
        {
          "internalType": "address",
          "name": "wallet",
          "type": "address"
        }
      ],
      "stateMutability": "view",
      "type": "function",
      "constant": true
    },
    {
      "inputs": [
        {
          "internalType": "uint256",
          "name": "",
          "type": "uint256"
        }
      ],
      "name": "trainers",
      "outputs": [
        {
          "internalType": "address",
          "name": "",
          "type": "address"
        }
      ],
      "stateMutability": "view",
      "type": "function",
      "constant": true
    },
    {
      "inputs": [
        {
          "internalType": "address",
          "name": "",
          "type": "address"
        }
      ],
      "name": "userRoles",
      "outputs": [
        {
          "internalType": "enum DisasterTraining.UserRole",
          "name": "",
          "type": "uint8"
        }
      ],
      "stateMutability": "view",
      "type": "function",
      "constant": true
    },
    {
      "inputs": [],
      "name": "registerAsAdmin",
      "outputs": [],
      "stateMutability": "nonpayable",
      "type": "function"
    },
    {
      "inputs": [],
      "name": "registerAsTrainer",
      "outputs": [],
      "stateMutability": "nonpayable",
      "type": "function"
    },
    {
      "inputs": [
        {
          "internalType": "string",
          "name": "_name",
          "type": "string"
        },
        {
          "internalType": "uint256",
          "name": "_age",
          "type": "uint256"
        },
        {
          "internalType": "string",
          "name": "_gender",
          "type": "string"
        },
        {
          "internalType": "string",
          "name": "_district",
          "type": "string"
        },
        {
          "internalType": "uint8",
          "name": "_interest",
          "type": "uint8"
        }
      ],
      "name": "registerAsParticipant",
      "outputs": [],
      "stateMutability": "nonpayable",
      "type": "function"
    },
    {
      "inputs": [],
      "name": "getTrainersLength",
      "outputs": [
        {
          "internalType": "uint256",
          "name": "",
          "type": "uint256"
        }
      ],
      "stateMutability": "view",
      "type": "function",
      "constant": true
    },
    {
      "inputs": [],
      "name": "getTotalParticipants",
      "outputs": [
        {
          "internalType": "uint256",
          "name": "",
          "type": "uint256"
        }
      ],
      "stateMutability": "view",
      "type": "function",
      "constant": true
    },
    {
      "inputs": [
        {
          "internalType": "address",
          "name": "participantAddr",
          "type": "address"
        },
        {
          "internalType": "uint8",
          "name": "newInterest",
          "type": "uint8"
        },
        {
          "internalType": "bool",
          "name": "setCompleted",
          "type": "bool"
        }
      ],
      "name": "updateParticipant",
      "outputs": [],
      "stateMutability": "nonpayable",
      "type": "function"
    },
    {
      "inputs": [
        {
          "internalType": "address",
          "name": "participantAddr",
          "type": "address"
        },
        {
          "internalType": "string",
          "name": "ipfsCID",
          "type": "string"
        }
      ],
      "name": "setCertificate",
      "outputs": [],
      "stateMutability": "nonpayable",
      "type": "function"
    },
    {
      "inputs": [
        {
          "internalType": "address",
          "name": "participantAddr",
          "type": "address"
        }
      ],
      "name": "getCertificate",
      "outputs": [
        {
          "internalType": "string",
          "name": "",
          "type": "string"
        }
      ],
      "stateMutability": "view",
      "type": "function",
      "constant": true
    },
    {
      "inputs": [
        {
          "internalType": "address",
          "name": "trainer",
          "type": "address"
        },
        {
          "internalType": "uint8",
          "name": "slotIndex",
          "type": "uint8"
        }
      ],
      "name": "bookTrainingSlot",
      "outputs": [],
      "stateMutability": "payable",
      "type": "function",
      "payable": true
    },
    {
      "inputs": [
        {
          "internalType": "address",
          "name": "trainer",
          "type": "address"
        }
      ],
      "name": "viewTrainerSchedule",
      "outputs": [
        {
          "internalType": "address[6]",
          "name": "",
          "type": "address[6]"
        }
      ],
      "stateMutability": "view",
      "type": "function",
      "constant": true
    }
  ],
  "bytecode": "0x6080604052600160005534801561001557600080fd5b5061309f806100256000396000f3fe6080604052600436106100fe5760003560e01c80635a14a81411610095578063a90cc44511610064578063a90cc44514610372578063d3b9ad6b1461039d578063dc0dc24e146103b4578063e00ef936146103d0578063fd531e93146103fb576100fe565b80635a14a814146102a457806372333091146102cd57806374d5e100146102f85780638ccd903214610335576100fe565b806320adc4d9116100d157806320adc4d9146101d6578063297b74f514610213578063498d55b81461025057806354ffbddb14610267576100fe565b80630745c9491461010357806309e69ede1461012c57806314bfd6d01461017057806317f01623146101ad575b600080fd5b34801561010f57600080fd5b5061012a60048036038101906101259190611ca5565b610438565b005b34801561013857600080fd5b50610153600480360381019061014e9190611ddf565b610916565b604051610167989796959493929190611f4c565b60405180910390f35b34801561017c57600080fd5b5061019760048036038101906101929190611fdf565b610b30565b6040516101a4919061200c565b60405180910390f35b3480156101b957600080fd5b506101d460048036038101906101cf9190612027565b610b6f565b005b3480156101e257600080fd5b506101fd60048036038101906101f89190611fdf565b610d63565b60405161020a919061200c565b60405180910390f35b34801561021f57600080fd5b5061023a600480360381019061023591906121b7565b610da2565b6040516102479190612200565b60405180910390f35b34801561025c57600080fd5b50610265610dd0565b005b34801561027357600080fd5b5061028e60048036038101906102899190611fdf565b610f86565b60405161029b919061200c565b60405180910390f35b3480156102b057600080fd5b506102cb60048036038101906102c69190612247565b610fc5565b005b3480156102d957600080fd5b506102e261128f565b6040516102ef9190612200565b60405180910390f35b34801561030457600080fd5b5061031f600480360381019061031a9190611ddf565b61129c565b60405161032c91906122e2565b60405180910390f35b34801561034157600080fd5b5061035c60048036038101906103579190611ddf565b6112bc565b60405161036991906123a8565b60405180910390f35b34801561037e57600080fd5b50610387611481565b6040516103949190612200565b60405180910390f35b3480156103a957600080fd5b506103b261148e565b005b6103ce60048036038101906103c991906123c3565b6116ad565b005b3480156103dc57600080fd5b506103e5611abf565b6040516103f29190612200565b60405180910390f35b34801561040757600080fd5b50610422600480360381019061041d9190611ddf565b611aca565b60405161042f9190612403565b60405180910390f35b6000600381111561044c5761044b611eab565b5b600160003373ffffffffffffffffffffffffffffffffffffffff1673ffffffffffffffffffffffffffffffffffffffff16815260200190815260200160002060009054906101000a900460ff1660038111156104ab576104aa611eab565b5b146104eb576040517f08c379a00000000000000000000000000000000000000000000000000000000081526004016104e290612471565b60405180910390fd5b60018160ff1610158015610503575060038160ff1611155b610542576040517f08c379a0000000000000000000000000000000000000000000000000000000008152600401610539906124dd565b60405180910390fd5b60008060008154809291906105569061252c565b9190505590506040518061010001604052808281526020018a8a8080601f016020809104026020016040519081016040528093929190818152602001838380828437600081840152601f19601f82011690508083019250505050505050815260200188815260200187878080601f016020809104026020016040519081016040528093929190818152602001838380828437600081840152601f19601f82011690508083019250505050505050815260200185858080601f016020809104026020016040519081016040528093929190818152602001838380828437600081840152601f19601f8201169050808301925050505050505081526020018360ff16600381111561066857610667611eab565b5b600381111561067a57610679611eab565b5b81526020016000151581526020013373ffffffffffffffffffffffffffffffffffffffff16815250600660003373ffffffffffffffffffffffffffffffffffffffff1673ffffffffffffffffffffffffffffffffffffffff1681526020019081526020016000206000820151816000015560208201518160010190816107009190612780565b506040820151816002015560608201518160030190816107209190612780565b5060808201518160040190816107369190612780565b5060a08201518160050160006101000a81548160ff0219169083600381111561076257610761611eab565b5b021790555060c08201518160050160016101000a81548160ff02191690831515021790555060e08201518160050160026101000a81548173ffffffffffffffffffffffffffffffffffffffff021916908373ffffffffffffffffffffffffffffffffffffffff1602179055509050506003600160003373ffffffffffffffffffffffffffffffffffffffff1673ffffffffffffffffffffffffffffffffffffffff16815260200190815260200160002060006101000a81548160ff0219169083600381111561083457610833611eab565b5b02179055506004339080600181540180825580915050600190039060005260206000200160009091909190916101000a81548173ffffffffffffffffffffffffffffffffffffffff021916908373ffffffffffffffffffffffffffffffffffffffff160217905550600584846040516108ae929190612882565b908152602001604051809103902060008154809291906108cd9061252c565b91905055507fa48418fa780c651bef841ca082131ed20bc20c620dd0459bba9ab78550f5d623338260405161090392919061289b565b60405180910390a1505050505050505050565b600660205280600052604060002060009150905080600001549080600101805461093f906125a3565b80601f016020809104026020016040519081016040528092919081815260200182805461096b906125a3565b80156109b85780601f1061098d576101008083540402835291602001916109b8565b820191906000526020600020905b81548152906001019060200180831161099b57829003601f168201915b5050505050908060020154908060030180546109d3906125a3565b80601f01602080910402602001604051908101604052809291908181526020018280546109ff906125a3565b8015610a4c5780601f10610a2157610100808354040283529160200191610a4c565b820191906000526020600020905b815481529060010190602001808311610a2f57829003601f168201915b505050505090806004018054610a61906125a3565b80601f0160208091040260200160405190810160405280929190818152602001828054610a8d906125a3565b8015610ada5780601f10610aaf57610100808354040283529160200191610ada565b820191906000526020600020905b815481529060010190602001808311610abd57829003601f168201915b5050505050908060050160009054906101000a900460ff16908060050160019054906101000a900460ff16908060050160029054906101000a900473ffffffffffffffffffffffffffffffffffffffff16905088565b60028181548110610b4057600080fd5b906000526020600020016000915054906101000a900473ffffffffffffffffffffffffffffffffffffffff1681565b60016003811115610b8357610b82611eab565b5b600160003373ffffffffffffffffffffffffffffffffffffffff1673ffffffffffffffffffffffffffffffffffffffff16815260200190815260200160002060009054906101000a900460ff166003811115610be257610be1611eab565b5b14610c22576040517f08c379a0000000000000000000000000000000000000000000000000000000008152600401610c1990612910565b60405180910390fd5b600380811115610c3557610c34611eab565b5b600160008573ffffffffffffffffffffffffffffffffffffffff1673ffffffffffffffffffffffffffffffffffffffff16815260200190815260200160002060009054906101000a900460ff166003811115610c9457610c93611eab565b5b14610cd4576040517f08c379a0000000000000000000000000000000000000000000000000000000008152600401610ccb9061297c565b60405180910390fd5b8181600860008673ffffffffffffffffffffffffffffffffffffffff1673ffffffffffffffffffffffffffffffffffffffff1681526020019081526020016000209182610d229291906129a7565b507f39f06bf218f917b73c97d18d50263951aa00e26d57e089e1e029bb104a81840b838383604051610d5693929190612aa4565b60405180910390a1505050565b60038181548110610d7357600080fd5b906000526020600020016000915054906101000a900473ffffffffffffffffffffffffffffffffffffffff1681565b6005818051602081018201805184825260208301602085012081835280955050505050506000915090505481565b60006003811115610de457610de3611eab565b5b600160003373ffffffffffffffffffffffffffffffffffffffff1673ffffffffffffffffffffffffffffffffffffffff16815260200190815260200160002060009054906101000a900460ff166003811115610e4357610e42611eab565b5b14610e83576040517f08c379a0000000000000000000000000000000000000000000000000000000008152600401610e7a90612471565b60405180910390fd5b60018060003373ffffffffffffffffffffffffffffffffffffffff1673ffffffffffffffffffffffffffffffffffffffff16815260200190815260200160002060006101000a81548160ff02191690836003811115610ee557610ee4611eab565b5b02179055506002339080600181540180825580915050600190039060005260206000200160009091909190916101000a81548173ffffffffffffffffffffffffffffffffffffffff021916908373ffffffffffffffffffffffffffffffffffffffff1602179055507fac0f15283d37631c15b481bc07dc402bcfc030956bcd94b5585f71d92e84c3da33604051610f7c919061200c565b60405180910390a1565b60048181548110610f9657600080fd5b906000526020600020016000915054906101000a900473ffffffffffffffffffffffffffffffffffffffff1681565b60016003811115610fd957610fd8611eab565b5b600160003373ffffffffffffffffffffffffffffffffffffffff1673ffffffffffffffffffffffffffffffffffffffff16815260200190815260200160002060009054906101000a900460ff16600381111561103857611037611eab565b5b14611078576040517f08c379a000000000000000000000000000000000000000000000000000000000815260040161106f90612910565b60405180910390fd5b6000600660008573ffffffffffffffffffffffffffffffffffffffff1673ffffffffffffffffffffffffffffffffffffffff168152602001908152602001600020905060008360ff16146111965760018360ff16101580156110de575060038360ff1611155b61111d576040517f08c379a000000000000000000000000000000000000000000000000000000000815260040161111490612b22565b60405180910390fd5b8260ff16600381111561113357611132611eab565b5b8160050160006101000a81548160ff0219169083600381111561115957611158611eab565b5b02179055507f077380cc4f1ff57ad464ec617331c7304c78fc6bfdd0e3b5efa221a3bb9f6e208460405161118d9190612b8e565b60405180910390a15b8115611247578060050160019054906101000a900460ff16156111ee576040517f08c379a00000000000000000000000000000000000000000000000000000000081526004016111e590612c08565b60405180910390fd5b60018160050160016101000a81548160ff0219169083151502179055507f077380cc4f1ff57ad464ec617331c7304c78fc6bfdd0e3b5efa221a3bb9f6e208460405161123a9190612c74565b60405180910390a1611289565b8115611288576040517f08c379a000000000000000000000000000000000000000000000000000000000815260040161127f90612cee565b60405180910390fd5b5b50505050565b6000600380549050905090565b60016020528060005260406000206000915054906101000a900460ff1681565b6112c4611b9b565b600260038111156112d8576112d7611eab565b5b600160008473ffffffffffffffffffffffffffffffffffffffff1673ffffffffffffffffffffffffffffffffffffffff16815260200190815260200160002060009054906101000a900460ff16600381111561133757611336611eab565b5b14611377576040517f08c379a000000000000000000000000000000000000000000000000000000000815260040161136e90612d5a565b60405180910390fd5b61137f611b9b565b6000600190505b60068160ff161161147757600760008573ffffffffffffffffffffffffffffffffffffffff1673ffffffffffffffffffffffffffffffffffffffff16815260200190815260200160002060000160008260ff1660ff16815260200190815260200160002060009054906101000a900473ffffffffffffffffffffffffffffffffffffffff16826001836114199190612d7a565b60ff166006811061142d5761142c612daf565b5b602002019073ffffffffffffffffffffffffffffffffffffffff16908173ffffffffffffffffffffffffffffffffffffffff1681525050808061146f90612dde565b915050611386565b5080915050919050565b6000600480549050905090565b600060038111156114a2576114a1611eab565b5b600160003373ffffffffffffffffffffffffffffffffffffffff1673ffffffffffffffffffffffffffffffffffffffff16815260200190815260200160002060009054906101000a900460ff16600381111561150157611500611eab565b5b14611541576040517f08c379a000000000000000000000000000000000000000000000000000000000815260040161153890612471565b60405180910390fd5b6002600160003373ffffffffffffffffffffffffffffffffffffffff1673ffffffffffffffffffffffffffffffffffffffff16815260200190815260200160002060006101000a81548160ff021916908360038111156115a4576115a3611eab565b5b02179055506003339080600181540180825580915050600190039060005260206000200160009091909190916101000a81548173ffffffffffffffffffffffffffffffffffffffff021916908373ffffffffffffffffffffffffffffffffffffffff1602179055506002600160003373ffffffffffffffffffffffffffffffffffffffff1673ffffffffffffffffffffffffffffffffffffffff16815260200190815260200160002060006101000a81548160ff0219169083600381111561166f5761166e611eab565b5b02179055507f672ed10db1686d24f0498d7222ee16112f36c3df1825007916800893ca842a12336040516116a3919061200c565b60405180910390a1565b6003808111156116c0576116bf611eab565b5b600160003373ffffffffffffffffffffffffffffffffffffffff1673ffffffffffffffffffffffffffffffffffffffff16815260200190815260200160002060009054906101000a900460ff16600381111561171f5761171e611eab565b5b1461175f576040517f08c379a000000000000000000000000000000000000000000000000000000000815260040161175690612e53565b60405180910390fd5b6002600381111561177357611772611eab565b5b600160008473ffffffffffffffffffffffffffffffffffffffff1673ffffffffffffffffffffffffffffffffffffffff16815260200190815260200160002060009054906101000a900460ff1660038111156117d2576117d1611eab565b5b14611812576040517f08c379a000000000000000000000000000000000000000000000000000000000815260040161180990612ebf565b60405180910390fd5b60018160ff161015801561182a575060068160ff1611155b611869576040517f08c379a000000000000000000000000000000000000000000000000000000000815260040161186090612f2b565b60405180910390fd5b6658d15e1762800034146118b2576040517f08c379a00000000000000000000000000000000000000000000000000000000081526004016118a990612f97565b60405180910390fd5b6000600760008473ffffffffffffffffffffffffffffffffffffffff1673ffffffffffffffffffffffffffffffffffffffff1681526020019081526020016000209050600073ffffffffffffffffffffffffffffffffffffffff168160000160008460ff1660ff16815260200190815260200160002060009054906101000a900473ffffffffffffffffffffffffffffffffffffffff1673ffffffffffffffffffffffffffffffffffffffff161461199f576040517f08c379a000000000000000000000000000000000000000000000000000000000815260040161199690613003565b60405180910390fd5b338160000160008460ff1660ff16815260200190815260200160002060006101000a81548173ffffffffffffffffffffffffffffffffffffffff021916908373ffffffffffffffffffffffffffffffffffffffff1602179055506002600081548110611a0e57611a0d612daf565b5b9060005260206000200160009054906101000a900473ffffffffffffffffffffffffffffffffffffffff1673ffffffffffffffffffffffffffffffffffffffff166108fc349081150290604051600060405180830381858888f19350505050158015611a7e573d6000803e3d6000fd5b507fe487069c0cb20caa4bb3232e0889f0368a1e4f6ef2640e563c06c1236ced95ac338484604051611ab293929190613032565b60405180910390a1505050565b6658d15e1762800081565b6060600860008373ffffffffffffffffffffffffffffffffffffffff1673ffffffffffffffffffffffffffffffffffffffff1681526020019081526020016000208054611b16906125a3565b80601f0160208091040260200160405190810160405280929190818152602001828054611b42906125a3565b8015611b8f5780601f10611b6457610100808354040283529160200191611b8f565b820191906000526020600020905b815481529060010190602001808311611b7257829003601f168201915b50505050509050919050565b6040518060c00160405280600690602082028036833780820191505090505090565b6000604051905090565b600080fd5b600080fd5b600080fd5b600080fd5b600080fd5b60008083601f840112611bf657611bf5611bd1565b5b8235905067ffffffffffffffff811115611c1357611c12611bd6565b5b602083019150836001820283011115611c2f57611c2e611bdb565b5b9250929050565b6000819050919050565b611c4981611c36565b8114611c5457600080fd5b50565b600081359050611c6681611c40565b92915050565b600060ff82169050919050565b611c8281611c6c565b8114611c8d57600080fd5b50565b600081359050611c9f81611c79565b92915050565b60008060008060008060008060a0898b031215611cc557611cc4611bc7565b5b600089013567ffffffffffffffff811115611ce357611ce2611bcc565b5b611cef8b828c01611be0565b98509850506020611d028b828c01611c57565b965050604089013567ffffffffffffffff811115611d2357611d22611bcc565b5b611d2f8b828c01611be0565b9550955050606089013567ffffffffffffffff811115611d5257611d51611bcc565b5b611d5e8b828c01611be0565b93509350506080611d718b828c01611c90565b9150509295985092959890939650565b600073ffffffffffffffffffffffffffffffffffffffff82169050919050565b6000611dac82611d81565b9050919050565b611dbc81611da1565b8114611dc757600080fd5b50565b600081359050611dd981611db3565b92915050565b600060208284031215611df557611df4611bc7565b5b6000611e0384828501611dca565b91505092915050565b611e1581611c36565b82525050565b600081519050919050565b600082825260208201905092915050565b60005b83811015611e55578082015181840152602081019050611e3a565b60008484015250505050565b6000601f19601f8301169050919050565b6000611e7d82611e1b565b611e878185611e26565b9350611e97818560208601611e37565b611ea081611e61565b840191505092915050565b7f4e487b7100000000000000000000000000000000000000000000000000000000600052602160045260246000fd5b60048110611eeb57611eea611eab565b5b50565b6000819050611efc82611eda565b919050565b6000611f0c82611eee565b9050919050565b611f1c81611f01565b82525050565b60008115159050919050565b611f3781611f22565b82525050565b611f4681611da1565b82525050565b600061010082019050611f62600083018b611e0c565b8181036020830152611f74818a611e72565b9050611f836040830189611e0c565b8181036060830152611f958188611e72565b90508181036080830152611fa98187611e72565b9050611fb860a0830186611f13565b611fc560c0830185611f2e565b611fd260e0830184611f3d565b9998505050505050505050565b600060208284031215611ff557611ff4611bc7565b5b600061200384828501611c57565b91505092915050565b60006020820190506120216000830184611f3d565b92915050565b6000806000604084860312156120405761203f611bc7565b5b600061204e86828701611dca565b935050602084013567ffffffffffffffff81111561206f5761206e611bcc565b5b61207b86828701611be0565b92509250509250925092565b600080fd5b7f4e487b7100000000000000000000000000000000000000000000000000000000600052604160045260246000fd5b6120c482611e61565b810181811067ffffffffffffffff821117156120e3576120e261208c565b5b80604052505050565b60006120f6611bbd565b905061210282826120bb565b919050565b600067ffffffffffffffff8211156121225761212161208c565b5b61212b82611e61565b9050602081019050919050565b82818337600083830152505050565b600061215a61215584612107565b6120ec565b90508281526020810184848401111561217657612175612087565b5b612181848285612138565b509392505050565b600082601f83011261219e5761219d611bd1565b5b81356121ae848260208601612147565b91505092915050565b6000602082840312156121cd576121cc611bc7565b5b600082013567ffffffffffffffff8111156121eb576121ea611bcc565b5b6121f784828501612189565b91505092915050565b60006020820190506122156000830184611e0c565b92915050565b61222481611f22565b811461222f57600080fd5b50565b6000813590506122418161221b565b92915050565b6000806000606084860312156122605761225f611bc7565b5b600061226e86828701611dca565b935050602061227f86828701611c90565b925050604061229086828701612232565b9150509250925092565b600481106122ab576122aa611eab565b5b50565b60008190506122bc8261229a565b919050565b60006122cc826122ae565b9050919050565b6122dc816122c1565b82525050565b60006020820190506122f760008301846122d3565b92915050565b600060069050919050565b600081905092915050565b6000819050919050565b61232681611da1565b82525050565b6000612338838361231d565b60208301905092915050565b6000602082019050919050565b61235a816122fd565b6123648184612308565b925061236f82612313565b8060005b838110156123a0578151612387878261232c565b965061239283612344565b925050600181019050612373565b505050505050565b600060c0820190506123bd6000830184612351565b92915050565b600080604083850312156123da576123d9611bc7565b5b60006123e885828601611dca565b92505060206123f985828601611c90565b9150509250929050565b6000602082019050818103600083015261241d8184611e72565b905092915050565b7f416c726561647920726567697374657265640000000000000000000000000000600082015250565b600061245b601283611e26565b915061246682612425565b602082019050919050565b6000602082019050818103600083015261248a8161244e565b9050919050565b7f496e76616c696420696e7465726573742073656c656374656400000000000000600082015250565b60006124c7601983611e26565b91506124d282612491565b602082019050919050565b600060208201905081810360008301526124f6816124ba565b9050919050565b7f4e487b7100000000000000000000000000000000000000000000000000000000600052601160045260246000fd5b600061253782611c36565b91507fffffffffffffffffffffffffffffffffffffffffffffffffffffffffffffffff8203612569576125686124fd565b5b600182019050919050565b7f4e487b7100000000000000000000000000000000000000000000000000000000600052602260045260246000fd5b600060028204905060018216806125bb57607f821691505b6020821081036125ce576125cd612574565b5b50919050565b60008190508160005260206000209050919050565b60006020601f8301049050919050565b600082821b905092915050565b6000600883026126367fffffffffffffffffffffffffffffffffffffffffffffffffffffffffffffffff826125f9565b61264086836125f9565b95508019841693508086168417925050509392505050565b6000819050919050565b600061267d61267861267384611c36565b612658565b611c36565b9050919050565b6000819050919050565b61269783612662565b6126ab6126a382612684565b848454612606565b825550505050565b600090565b6126c06126b3565b6126cb81848461268e565b505050565b5b818110156126ef576126e46000826126b8565b6001810190506126d1565b5050565b601f82111561273457612705816125d4565b61270e846125e9565b8101602085101561271d578190505b612731612729856125e9565b8301826126d0565b50505b505050565b600082821c905092915050565b600061275760001984600802612739565b1980831691505092915050565b60006127708383612746565b9150826002028217905092915050565b61278982611e1b565b67ffffffffffffffff8111156127a2576127a161208c565b5b6127ac82546125a3565b6127b78282856126f3565b600060209050601f8311600181146127ea57600084156127d8578287015190505b6127e28582612764565b86555061284a565b601f1984166127f8866125d4565b60005b82811015612820578489015182556001820191506020850194506020810190506127fb565b8683101561283d5784890151612839601f891682612746565b8355505b6001600288020188555050505b505050505050565b600081905092915050565b60006128698385612852565b9350612876838584612138565b82840190509392505050565b600061288f82848661285d565b91508190509392505050565b60006040820190506128b06000830185611f3d565b6128bd6020830184611e0c565b9392505050565b7f4f6e6c792041646d696e20616c6c6f7765640000000000000000000000000000600082015250565b60006128fa601283611e26565b9150612905826128c4565b602082019050919050565b60006020820190508181036000830152612929816128ed565b9050919050565b7f4e6f742061207061727469636970616e74000000000000000000000000000000600082015250565b6000612966601183611e26565b915061297182612930565b602082019050919050565b6000602082019050818103600083015261299581612959565b9050919050565b600082905092915050565b6129b1838361299c565b67ffffffffffffffff8111156129ca576129c961208c565b5b6129d482546125a3565b6129df8282856126f3565b6000601f831160018114612a0e57600084156129fc578287013590505b612a068582612764565b865550612a6e565b601f198416612a1c866125d4565b60005b82811015612a4457848901358255600182019150602085019450602081019050612a1f565b86831015612a615784890135612a5d601f891682612746565b8355505b6001600288020188555050505b50505050505050565b6000612a838385611e26565b9350612a90838584612138565b612a9983611e61565b840190509392505050565b6000604082019050612ab96000830186611f3d565b8181036020830152612acc818486612a77565b9050949350505050565b7f496e76616c696420747261696e696e6720696e74657265737400000000000000600082015250565b6000612b0c601983611e26565b9150612b1782612ad6565b602082019050919050565b60006020820190508181036000830152612b3b81612aff565b9050919050565b7f696e746572657374000000000000000000000000000000000000000000000000600082015250565b6000612b78600883611e26565b9150612b8382612b42565b602082019050919050565b6000604082019050612ba36000830184611f3d565b8181036020830152612bb481612b6b565b905092915050565b7f416c726561647920636f6d706c65746564000000000000000000000000000000600082015250565b6000612bf2601183611e26565b9150612bfd82612bbc565b602082019050919050565b60006020820190508181036000830152612c2181612be5565b9050919050565b7f686173436f6d706c65746564547261696e696e67000000000000000000000000600082015250565b6000612c5e601483611e26565b9150612c6982612c28565b602082019050919050565b6000604082019050612c896000830184611f3d565b8181036020830152612c9a81612c51565b905092915050565b7f436f6d706c6574696f6e2063616e6e6f74206265207265766572746564000000600082015250565b6000612cd8601d83611e26565b9150612ce382612ca2565b602082019050919050565b60006020820190508181036000830152612d0781612ccb565b9050919050565b7f4e6f74206120747261696e657200000000000000000000000000000000000000600082015250565b6000612d44600d83611e26565b9150612d4f82612d0e565b602082019050919050565b60006020820190508181036000830152612d7381612d37565b9050919050565b6000612d8582611c6c565b9150612d9083611c6c565b9250828203905060ff811115612da957612da86124fd565b5b92915050565b7f4e487b7100000000000000000000000000000000000000000000000000000000600052603260045260246000fd5b6000612de982611c6c565b915060ff8203612dfc57612dfb6124fd565b5b600182019050919050565b7f4f6e6c79205061727469636970616e7420616c6c6f7765640000000000000000600082015250565b6000612e3d601883611e26565b9150612e4882612e07565b602082019050919050565b60006020820190508181036000830152612e6c81612e30565b9050919050565b7f4e6f7420612076616c696420747261696e657200000000000000000000000000600082015250565b6000612ea9601383611e26565b9150612eb482612e73565b602082019050919050565b60006020820190508181036000830152612ed881612e9c565b9050919050565b7f496e76616c696420736c6f740000000000000000000000000000000000000000600082015250565b6000612f15600c83611e26565b9150612f2082612edf565b602082019050919050565b60006020820190508181036000830152612f4481612f08565b9050919050565b7f496e636f72726563742066656500000000000000000000000000000000000000600082015250565b6000612f81600d83611e26565b9150612f8c82612f4b565b602082019050919050565b60006020820190508181036000830152612fb081612f74565b9050919050565b7f547261696e657220616c726561647920626f6f6b656400000000000000000000600082015250565b6000612fed601683611e26565b9150612ff882612fb7565b602082019050919050565b6000602082019050818103600083015261301c81612fe0565b9050919050565b61302c81611c6c565b82525050565b60006060820190506130476000830186611f3d565b6130546020830185611f3d565b6130616040830184613023565b94935050505056fea2646970667358221220b6209a90fa3b756b2a7025283fc95e2ea2f2f46413e1d7b6bf50a670aff72efd64736f6c63430008130033",
  "immutableReferences": {},
  "source": "// SPDX-License-Identifier: GPL-3.0\n\n\npragma solidity >=0.8.2 <0.9.0;\n\n\ncontract DisasterTraining {\n\n\n    enum UserRole { None, Admin, Trainer, Participant }\n    enum TrainingInterest { None, first_aid, shelter_rebuild, food_safety }\n\n\n    uint public constant BOOKING_FEE = 0.025 ether;\n    uint private nextParticipantId = 1;\n\n\n    struct Participant {\n        uint id;\n        string name;\n        uint age;\n        string gender;\n        string district;\n        TrainingInterest training_interest;\n        bool has_completed_training;\n        address wallet;\n    }\n\n\n    struct TrainerSchedule {\n        mapping(uint8 => address) slotToParticipant; // slot index to participant address\n    }\n\n\n    mapping(address => UserRole) public userRoles;\n    address[] public admins;\n    address[] public trainers;\n    address[] public participantAddresses;\n    mapping(string => uint) public districtParticipantCount;\n    mapping(address => Participant) public participants;\n    mapping(address => TrainerSchedule) private trainerSchedules;\n    mapping(address => string) private participantCertificates;\n\n\n    event ParticipantRegistered(address participant, uint id);\n    event TrainerRegistered(address trainer);\n    event AdminRegistered(address admin);\n    event DataUpdated(address participant, string field);\n    event TrainingBooked(address participant, address trainer, uint8 slot);\n    event CertificateUploaded(address participant, string ipfsCID);\n\n\n    modifier onlyAdmin() {\n        require(userRoles[msg.sender] == UserRole.Admin, \"Only Admin allowed\");\n        _;\n    }\n\n\n    modifier onlyParticipant() {\n        require(userRoles[msg.sender] == UserRole.Participant, \"Only Participant allowed\");\n        _;\n    }\n\n\n    // Registration functions\n    function registerAsAdmin() external {\n        require(userRoles[msg.sender] == UserRole.None, \"Already registered\");\n        userRoles[msg.sender] = UserRole.Admin;\n        admins.push(msg.sender);\n        emit AdminRegistered(msg.sender);\n    }\n\n\n    function registerAsTrainer() external {\n        require(userRoles[msg.sender] == UserRole.None, \"Already registered\");\n        userRoles[msg.sender] = UserRole.Trainer;\n        \n        trainers.push(msg.sender);\n        userRoles[msg.sender] = UserRole.Trainer;\n        emit TrainerRegistered(msg.sender);\n    }\n\n\n    \n    function registerAsParticipant(\n        string calldata _name,\n        uint _age,\n        string calldata _gender,\n        string calldata _district,\n        uint8 _interest\n    ) external {\n        require(userRoles[msg.sender] == UserRole.None, \"Already registered\");\n        require(_interest >= 1 && _interest <= 3, \"Invalid interest selected\");\n\n        uint id = nextParticipantId++;\n        participants[msg.sender] = Participant({\n            id: id,\n            name: _name,\n            age: _age,\n            gender: _gender,\n            district: _district,\n            training_interest: TrainingInterest(_interest),\n            has_completed_training: false,\n            wallet: msg.sender\n        });\n        userRoles[msg.sender] = UserRole.Participant;\n\n        participantAddresses.push(msg.sender);\n\n        // Update district count\n        districtParticipantCount[_district]++;\n\n        emit ParticipantRegistered(msg.sender, id);\n    }\n\n\n    function getTrainersLength() public view returns (uint) {\n    return trainers.length;\n    }\n\n    function getTotalParticipants() public view returns (uint) {\n    return participantAddresses.length;\n    }\n\n    // Admin can update certain fields\n    function updateParticipant(\n        address participantAddr,\n        uint8 newInterest,\n        bool setCompleted\n    ) external onlyAdmin {\n        Participant storage p = participants[participantAddr];\n\n\n        if (newInterest != 0) {\n            require(newInterest >= 1 && newInterest <= 3, \"Invalid training interest\");\n            p.training_interest = TrainingInterest(newInterest);\n            emit DataUpdated(participantAddr, \"interest\");\n        }\n        if (setCompleted) {\n            require(!p.has_completed_training, \"Already completed\");\n            p.has_completed_training = true;\n            emit DataUpdated(participantAddr, \"hasCompletedTraining\");\n        } else {\n            require(!setCompleted, \"Completion cannot be reverted\");\n        }\n    }\n\n    function setCertificate(address participantAddr, string calldata ipfsCID) external onlyAdmin {\n    require(userRoles[participantAddr] == UserRole.Participant, \"Not a participant\");\n    participantCertificates[participantAddr] = ipfsCID;\n    emit CertificateUploaded(participantAddr, ipfsCID);\n    }\n\n    // Anyone can get the certificate CID\n    function getCertificate(address participantAddr) external view returns (string memory) {\n        return participantCertificates[participantAddr];\n    }\n\n\n\n    // Book a training slot with a trainer\n    // slots: 1: 9:009:30, 2: 9:3110:00, 3: 10:0110:30 4: 10:31-11.00 5: 11.01-11.30 6: 11.31-12.00\n    function bookTrainingSlot(address trainer, uint8 slotIndex) external payable onlyParticipant {\n        require(userRoles[trainer] == UserRole.Trainer, \"Not a valid trainer\");\n        require(slotIndex >= 1 && slotIndex <= 6, \"Invalid slot\");\n        require(msg.value == BOOKING_FEE, \"Incorrect fee\");\n        TrainerSchedule storage ts = trainerSchedules[trainer];\n        require(ts.slotToParticipant[slotIndex] == address(0), \"Trainer already booked\");\n\n\n        ts.slotToParticipant[slotIndex] = msg.sender;\n        // Send the fee to admin\n        payable(admins[0]).transfer(msg.value);\n\n\n        emit TrainingBooked(msg.sender, trainer, slotIndex);\n    }\n\n\n    // View a trainer's schedule\n    function viewTrainerSchedule(address trainer) public view returns (address[6] memory) {\n        require(userRoles[trainer] == UserRole.Trainer, \"Not a trainer\");\n        address[6] memory slots;\n        for (uint8 i = 1; i <= 6; i++) {\n            slots[i-1] = trainerSchedules[trainer].slotToParticipant[i];\n        }\n        return slots;\n    }\n}\n",
  "sourcePath": "/home/rifraff/DisasterDapp/contracts/DisasterTraining.sol",
  "compiler": {
    "name": "solc",
    "version": "0.8.19+commit.7dd6d404.Emscripten.clang"
  },
  "schemaVersion": "3.4.16",
  "updatedAt": "2025-08-25T15:12:57.271Z",
  "networkType": "ethereum",
  "devdoc": {
    "kind": "dev",
    "methods": {},
    "version": 1
  },
  "userdoc": {
    "kind": "user",
    "methods": {},
    "version": 1
  }
}